:020000040800F2
:10000000B82B01209D01000875650008B152000859
:10001000716500089F0B000887AE00080000000013
:10002000000000000000000000000000FD8A000841
:10003000DF0C0008000000005F680008118B00085A
:10004000B7010008B7010008B7010008FD69000802
:10005000B7010008B7010008B7010008B7010008A0
:10006000B7010008B7010008B7010008B701000890
:10007000B7010008B7010008B7010008B701000880
:10008000B7010008B7010008B7010008B701000870
:10009000B7010008B7010008B7010008B701000860
:1000A000B7010008B7010008B7010008B701000850
:1000B000B7010008B7010008B7010008B701000840
:1000C000B7010008B7010008B7010008B701000830
:1000D000B70100080D8C0008318C0008B70100083A
:1000E000B11000087D690008B7010008B7010008D9
:1000F000B7010008B7010008B7010008B701000800
:10010000B7010008F9770008B7010008B701000837
:10011000B7010008B7010008B7010008B7010008DF
:10012000A50B0008B7010008B7010008B50B0008CF
:10013000B7010008B7010008B7010008B7010008BF
:10014000B7010008B7010008B7010008B965000849
:10015000B7010008C50B0008B7010008B701000887
:10016000B7010008B7010008B7010008B70100088F
:10017000B7010008B7010008B7010008000000003F
:10018000B7010008B7010008DFF80CD000F05EFBF3
:10019000004800478D040108B82B0120064880471D
:1001A00006480047FEE7FEE7FEE7FEE7FEE7FEE75C
:1001B000FEE7FEE7FEE7FEE7F18B00088901000895
:1001C0002DE9F05F0546002092469B46884606468C
:1001D000814640241BE0284641464746224600F01F
:1001E000DDF953465A46C01A914110D311461846BC
:1001F000224600F0C4F92D1A67EB01084F4622464B
:100200000120002100F0BBF917EB00094E41201E30
:10021000A4F10104DFDC484631462A464346BDE8E6
:10022000F09F00000649074A0868504343F239022C
:10023000104408604008704701490860704700009A
:100240000C0100106D4EC64110B5431A934209D2FD
:100250008318881803E010F8011D03F8011D521ED1
:10026000F9D210BD40EA01039B0703D009E008C999
:10027000121F08C0042AFAD203E011F8013B00F86B
:10028000013B521EF9D210BDD2B201E000F8012BA1
:10029000491EFBD270470022F6E710B513460A4606
:1002A00004461946FFF7F0FF204610BD421C10F827
:1002B000011B0029FBD1801A704730B5044600208D
:1002C000034600E05B1C934203D2E05CCD5C401B24
:1002D000F8D030BD2DE9FE4F804681EA0300C00F03
:1002E0000C46009021F0004123F00045B8EB0200DD
:1002F000A94105D24046214690461C460B4602467F
:1003000023F00040104347D0270DC7F30A00C3F382
:100310000A510290401A019040286BDAC3F313008F
:1003200040F4801B0098924620B10023D2EB030AD0
:1003300063EB0B0B01985946C0F14002504600F0A8
:100340001EF906460D4650465946019A00F036F908
:1003500010EB08006141002487EA115284EAE77338
:100360001A4340D0009A62B3019A012A4FEA075219
:1003700015DC001B61EB02014FF0004202EA07525C
:10038000CDE90042001C41F5801132462B4600F0B9
:100390006DF903B0BDE8F08F40462146F9E7001B38
:1003A00061EB0201001C41F5801300185B4120182D
:1003B000A2F5001747EB030140EAD570B6196D416D
:1003C00011E06D084FEA360645EAC0754FEA07525C
:1003D000001B61EB0201001C41F5801149084FEA46
:1003E00030000019514132462B4603B0BDE8F04FB2
:1003F00000F02DB90098012240000023D0EB02024A
:1004000063EBE073009821464FEAE074B8EB00001C
:1004100061EB0401E9E783F000435BE781F0004111
:1004200058E72DE9F04D81EA030404F0004B21F078
:10043000004514464FF0000A23F0004150EA05023F
:1004400020D054EA01021DD0C5F30A570246C5F375
:100450001303C1F31300C1F30A5640F4801543F4AB
:100460008013A7EB0608101BD64608F2FD3873EB85
:10047000050002D308F1010801E092185B41B8F1D0
:10048000000F03DA00200146BDE8F08D00204FF494
:100490008011064684460EE0171B73EB050705D353
:1004A000121B63EB050306434CEA010C49084FEAB3
:1004B000300092185B4150EA0107EDD152EA030087
:1004C00012D082EA040083EA0501084305D0101B1C
:1004D000AB4106D20122002306E000224FF0004388
:1004E00002E06FF0010253101AEB06004CEB0851CA
:1004F00010EB0A0041EB0B01BDE8F04D00F0A7B88E
:100500000EB540F2334102910021CDE900110A46B7
:100510000B4600F0ABF803B000BD01F0004330B46F
:1005200021F0004150EA010206D00A0DA2F56072E6
:10053000C1F31301002A02DC30BC00207047440FD5
:1005400044EAC104C100E01830BC00EBC25000F026
:1005500047B830B50B46014600202022012409E0AF
:1005600021FA02F59D4205D303FA02F5491B04FA6C
:1005700002F52844151EA2F10102F1DC30BD202A4B
:1005800004DB203A00FA02F1002070479140C2F1EA
:10059000200320FA03F3194390407047202A04DB1C
:1005A000203A21FA02F00021704721FA02F3D040EC
:1005B000C2F120029140084319467047202A06DB09
:1005C000CB17203A41FA02F043EAE07306E041FA21
:1005D00002F3D040C2F1200291400843194670470F
:1005E0000029A8BF7047401C490008BF20F0010047
:1005F000704710B4B0FA80FC00FA0CF050EA010425
:1006000004BF10BC704749B1CCF1200421FA04F4B6
:1006100011FA0CF118BF012121430843A3EB0C018F
:10062000CB1D4FEA00614FEA102042BF002010BCF2
:10063000704700EBC35010440029A4BF10BC7047A2
:10064000401C490008BF20F0010010BC704710B5E5
:10065000141E73F1000408DA401C41F100019218E5
:100660005B411A4301D120F0010010BD2DE9F04D8E
:1006700092469B4611B1B1FA81F202E0B0FA80F2E3
:1006800020329046FFF77BFF04460F4640EA0A00FF
:1006900041EA0B0153465A46084313D0114653EA28
:1006A000010019D0C8F140025046FFF777FF054618
:1006B0000E46504659464246FFF761FF084305D0B3
:1006C000012004E020463946BDE8F08D00200543B6
:1006D00046EAE0762C4337430A986305E40AA0EB28
:1006E00008000022FD0A44EA47540A3002D50020DF
:1006F0000146E9E7010510196941DDE908450019DE
:100700006941BDE8F04DA2E72DE9FE4F81EA0304FF
:1007100004F0004421F0004100944FF0000B23F05E
:10072000004350EA01045ED052EA03045BD0C3F3F5
:100730000A54C1F30A552C44A4F2F3340194A0FBEB
:100740000254C1F3130141F48011C3F3130343F4C2
:10075000801301FB024400FB034E840A970A44EA1B
:10076000815447EA8357A4FB076802958D0A05FB6D
:1007700007854FEA932C04FB0C542705029D4FEA92
:10078000065847EA1637B5EB08056EEB070C870EDF
:10079000920E47EA811742EA8312A7FB0201B6EBE9
:1007A0000B0164EB00042B0D43EA0C335E1844EBA1
:1007B0001C50DA465146E7FB0201C5F313044FEA29
:1007C0000B3343EA14534FEA0432019C43EA060315
:1007D000A4F10C040294009CCDE900B4FFF746FF9D
:1007E00003B0BDE8F08F00200146F9E7C1F30A52DB
:1007F000C1F3130140F2FF3341F480119A4202DA4F
:1008000000200146704740F233439A42A2F233423D
:1008100002DC5242FFF7C2BEFFF7B1BE30B5041E84
:1008200071F1000404DB4FF00044404264EB01012D
:10083000141E73F1000405DB1C464FF000435242C6
:1008400063EB0403994208BF904230BD064C074D4C
:1008500006E0E06840F0010394E807009847103490
:10086000AC42F6D3FFF794FCE49801082499010800
:1008700070B58C1810F8015B15F0070301D110F862
:10088000013B2A1106D110F8012B03E010F8016B8F
:1008900001F8016B5B1EF9D12B0705D40023521E12
:1008A0000DD401F8013BFAE710F8013BCB1A921C7A
:1008B00003E013F8015B01F8015B521EF9D5A14278
:1008C000D8D3002070BD70B50546AC6B206C00F02D
:1008D000500050BB206C40F4007020642068806899
:1008E00000F04050E8B9207ED8B92068C06A00F412
:1008F000700020B12068806800F4806088B92068AA
:10090000406820F0200021684860206C20F480704E
:100910002064206C00F4805018B9206C40F0010075
:100920002064204600F0DEFC0BE0206C00F010009C
:1009300018B1204600F0D8FC03E0A06BC16C28463B
:10094000884770BD70B50546AC6B40202064606C74
:1009500040F004006064204600F0C6FC70BD70B535
:100960000446A56B284600F0BEFC70BD55494A6898
:1009700022F440324A604A6843681A434A60026877
:10098000526822F4807203685A60026853680269F0
:1009900043EA022203685A600268526822F04072F9
:1009A00003685A600268526883681A4303685A6091
:1009B0000268926822F4006203689A600268926892
:1009C000C3681A4303689A603F4B826A9A4218D000
:1009D0000268926822F0706203689A600268926806
:1009E000836A1A4303689A600268926822F0405250
:1009F00003689A6002689268C36A1A4303689A603F
:100A00000BE00268926822F0706203689A600268E4
:100A1000926822F0405203689A600268926822F05D
:100A2000020203689A6002689368027E43EA420207
:100A300003689A602022125CA2B10268526842F4F4
:100A4000006203685A600268526822F460420368D8
:100A50005A6002685368426A521E43EA423203688F
:100A60005A6005E00268526822F4006203685A6026
:100A70000268D26A22F470020368DA620268D36AFA
:100A8000828B521E43EA02520368DA62026892685D
:100A900022F4007203689A600268936890F830202C
:100AA00043EA422203689A600268926822F48062F4
:100AB00003689A6002689368426943EA8222036885
:100AC0009A607047002301400100000F704700004A
:100AD00010B504462146024803F03AFE10BD00005E
:100AE000E052002010B5044803F045FE042801D070
:100AF000012010BD0020FCE7E052002010B50024CA
:100B000000F014F8012801D0012010BD064803F0C0
:100B100053FF044634B94FF40061034803F0DEFC90
:100B200000B101242046F0E7E052002008B5012082
:100B300000909DF8000008BD2DE9F84304460D46DD
:100B400016461F464FF0000833462A462146054800
:100B5000009704F057F808B14FF001084046BDE88F
:100B6000F8830000E0520020704700002DE9F843B0
:100B700004460D4616461F464FF0000833462A46E7
:100B800021460548009704F0A7F908B14FF0010885
:100B90004046BDE8F8830000E0520020704700BFE7
:100BA000FEE7000010B5024800F0E8FC10BD0000B0
:100BB0005C01001010B5024800F0E0FC10BD000020
:100BC0006453002010B5024800F0D8FC10BD0000AE
:100BD000C45300200146087810381823B0FBF3F204
:100BE0000848805CC865032A05D908686FF30900C6
:100BF000001D886503E008686FF309008865886D4B
:100C000070470000A4950108014600208A6A8B699C
:100C1000CBB932B1012A0DD0022A03D0032A10D158
:100C20000EE000BFCB6A03F08073B3F1807F00D188
:100C3000012007E0CB6AB3F1C07F00D1012001E0C1
:100C400000E000BF34E08B69B3F5005F1AD132B128
:100C5000012A07D0022A03D0032A11D10AE000BFDB
:100C600001200EE0CB6A03F08073B3F1807F00D1E6
:100C7000012006E0CB6AB3F1C07F00D1012000E083
:100C800000BF15E032B1012A05D0022A04D0032AA0
:100C90000CD103E000BF00BF012008E0CB6A03F0E5
:100CA0008073B3F1807F00D1012000E000BF00BF5E
:100CB000704730B50468246824F4802405682C60EB
:100CC000046863608468402C04D10468A2600468EE
:100CD000E16003E00468A1600468E26030BD704731
:100CE000016801F58051896921F00202016801F56E
:100CF00080518A617047016801F58051896941F02E
:100D00000202016801F580518A617047016801F5AE
:100D10008051896921F40052016801F580518A618E
:100D20007047016801F58051896941F400520168FA
:100D300001F580518A61704708B508490968C908FA
:100D40004FF47A72B1FBF2F14143009100BF00BF52
:100D500000994A1E00920029F9D108BD74000020B4
:100D600038B5044600200090206800F58050806966
:100D700040F48011206800F580508161206800F502
:100D80008050806900900120FFF7D6FF009920680D
:100D900000F58050816138BD30B50346147955792E
:100DA00044EA0520084C0C442064D4782406957845
:100DB00044EA0544557844EA0524157844EA0500D8
:100DC000014C0C44606430BD0080024070B5AEB090
:100DD00004460E46002526B14FF40061E160C900CB
:100DE000A16000201190129013901490159016900D
:100DF000E06918B94FF48060179001E00020179067
:100E00004FF400701890002019901A901B901C90BD
:100E10001D9040201E9000201F9020902190229035
:100E200023902490259026908020279000202890C1
:100E300029902A902B902C902D902068056871485D
:100E40000540DDE91101084313990843149908434B
:100E5000A16808431599084316990843E1680843B7
:100E60001799084318990843199908431A99084390
:100E70001B99084305432068056020680568012028
:100E800000F05CFD20680560DDE91C0108431E9947
:100E900008431F9908432099084321990843229940
:100EA0000843239908432168486020684568012069
:100EB00000F044FD206845602498216888602598EA
:100EC0002168C860206885694FF641700540DDE9FA
:100ED000261040EA014028990843299908432A9995
:100EE00008432B990843054320688561206885697C
:100EF000012000F023FD20688561DDE92C01084315
:100F00002168C8612068C569012000F017FD2068CC
:100F1000C561002001904FF0007002900020039006
:100F20004FF4001004900020059006900790089060
:100F300004200990C0050A9040120B9080010C908B
:100F400040120D9080200E9000200F90109020688D
:100F500000F5805085692C480540DDE90101084312
:100F600003990843049908430599084306990843DF
:100F700007990843089908430999084305432068DD
:100F800000F580508561206800F58050856901205A
:100F900000F0D4FC206800F580508561DDE90A018D
:100FA00008430C9908430D9908430E9908430F997B
:100FB00040EA81001099084340F40001206800F5E0
:100FC00080500160206800F580500568012000F025
:100FD000B5FC206800F580500560A069012809D1A2
:100FE000206800F58050C06908490843216801F570
:100FF0008051C861002120466269FFF7CDFE2EB006
:1010000070BD00000F8120FF233FDEF8400001008B
:1010100038B50446002000902068006820F00400E5
:10102000216808602068006800900120FFF784FEB6
:1010300000982168086038BD38B50446002000904B
:101040002068006840F0040021680860206800689B
:1010500000900120FFF770FE00982168086038BDFD
:1010600038B50446002000902068006820F0080091
:10107000216808602068006800900120FFF75CFE8E
:1010800000982168086038BD38B5044600200090FB
:101090002068006840F00800216808602068006847
:1010A00000900120FFF748FE00982168086038BDD5
:1010B00010B54FF4005001F0FDF810BD704730B589
:1010C00004460D4600222946204600F001F830BDB6
:1010D000F0B50346012500241148807B02281CDA64
:1010E00000200F4EB67B0E4FB8553846867B001D4C
:1010F00040F82630001F867B0C3082553E46B07B80
:10110000461CBE73044604F1300008703A20487053
:101110002F2088700020C87000252846F0BD0000F0
:10112000ECA4002070B50A480468001D0568001D85
:101130000668344454B108220649204604F0BAF83F
:10114000042204491031284604F0B4F870BD0000B0
:10115000107AFF1FD200001038B502460020009020
:1011600000BF92F83C00012801D1022038BD0120C7
:1011700082F83C0000BF0868092816D91068C068CA
:101180000C780A3C04EB44050724AC40A0431468E7
:10119000E0600C780A3C04EB44048868A0401468C2
:1011A000E46820431468E06013E0106800690C787C
:1011B00004EB44050724AC40A043146820610C787C
:1011C00004EB44048868A040146824692043146830
:1011D00020614868072817D21068406B0C79641E9C
:1011E00004EB84051F24AC40A043146860630888A6
:1011F00080B20C79641E04EB8404A0401468646B14
:1012000020431468606331E048680D2817D21068E5
:10121000006B0C79E41F04EB84051F24AC40A04351
:1012200014682063088880B20C79E41F04EB8404FE
:10123000A0401468246B20431468206316E01068F3
:10124000C06A0C790D3C04EB84051F24AC40A0431C
:101250001468E062088880B20C790D3C04EB8404C9
:10126000A0401468E46A20431468E062194B1A4CE9
:101270001068A04206D10868122803D1586840F4CB
:1012800080005860144C1068A0421CD108681028D7
:1012900002D00868112816D1586840F40000586040
:1012A000086810280FD10D4800680D4CB0FBF4F011
:1012B00000EB80004000009002E00098401E00908B
:1012C00000980028F9D100BF002082F83C0000BF40
:1012D00000BF4BE7002301400020014074000020C4
:1012E00040420F00704770477047000070B50446D9
:1012F00000250CB9012070BD1549A06A884200D0B4
:1013000000BF206C30B9204600F024F80020606453
:1013100084F83C00206C00F0100088B9206C20F4A8
:10132000885040F0020020642046FFF71FFB002099
:101330006064206C20F0020040F00100206400E0B6
:10134000012500BF002084F83C0000BF2846D2E7FA
:101350000100000F38B504461949206888422DD194
:1013600000BF002000901748006840F480701549C5
:1013700008600846006800F48070009000BF00BF5D
:101380001148124908600020486000210F48816020
:10139000C1604FF480610161490041618900816150
:1013A0000021C1610162416200F008FA08B1FFF753
:1013B00085FE00BF0548A063846300BF38BD000000
:1013C0000020014044380240106402405C010010DB
:1013D000F8B504460D4616460020009000BF94F86C
:1013E0003C00012801D10220F8BD012084F83C0016
:1013F00000BF2068806800F00100A0B92068806804
:1014000040F0010021688860494800684949B0FB04
:10141000F1F000EB4000009002E00098401E0090C8
:1014200000980028F9D12068806800F001000028A9
:101430007CD0206C40F20161884340F480702064CD
:101440002068406800F4806028B1206C20F40050CF
:1014500040F480502064206C00F48050B0F5805F30
:1014600004D1606C20F00600606401E0002060643C
:1014700000BF002084F83C0000BF2F4F2F48A16B15
:10148000C8632F48A16B08642E48A16BC8646FF035
:101490002200216808602068406840F08060216870
:1014A00048602068806840F4807021688860226805
:1014B00002F14C0133462A46A06B00F0F5F978683A
:1014C00000F01F0018BB20492068884213D01F4934
:1014D0002068884204D1381D006800F01F0050B118
:1014E0001B492068884221D11348001D006800F084
:1014F0001F0010281AD22068806800F0405028B9D8
:101500002068806840F08040216888600EE00E49C5
:10151000206888420AD12068806800F0405028B9CD
:101520002068806840F080402168886000205BE788
:101530007400002040420F0000230140C70800084B
:101540005F09000845090008002001400021014012
:1015500000220140014691F83500022803D0802086
:10156000486501207047052081F83500086800684B
:1015700020F001000A6810600020F3E7F8B5044687
:10158000002000908C4800684FF41651B0FBF1F732
:10159000A56D2E6894F85C1008208840304098B102
:1015A0002068006800F0040070B12068006820F036
:1015B00004002168086094F85C1008208840A86046
:1015C000606D40F00100606594F85C100120884077
:1015D000304068B12068406900F0800040B194F864
:1015E0005C1001208840A860606D40F002006065DA
:1015F00094F85C1004208840304068B1206800688E
:1016000000F0020040B194F85C1004208840A8600B
:10161000606D40F00400606594F85C101020884014
:10162000304078B32068006800F0080050B394F8A8
:101630005C1010208840A8602068006800F48020BA
:1016400080B12068006800F4002028B9206CC8B17F
:101650002046216C884715E0A06C98B12046A16C0B
:1016600088470FE02068006800F4807028B920687F
:10167000006820F0080021680860206C10B1204646
:10168000216C884794F85C10202088403040002866
:1016900065D02068006800F0100000285FD094F842
:1016A0005C1020208840A86094F83500052828D1D7
:1016B0002068006820F016002168086020684069F2
:1016C00020F0800021684861206C08B9A06C28B126
:1016D0002068006820F008002168086094F85C1019
:1016E0003F208840A86000BF002084F8340000BF7D
:1016F000012084F83500206D10B12046216D884707
:10170000F8BD2068006800F4802080B1206800687F
:1017100000F4002028B9606C10B12046616C884745
:101720001DE0E06BD8B12046E16B884717E02068E8
:10173000006800F4807068B92068006820F010002C
:101740002168086000BF002084F8340000BF012039
:1017500084F83500E06B10B12046E16B8847606D7E
:1017600038B3606D00F00100F0B1052084F8350059
:101770002068006820F001002168086000BF009820
:10178000401C0090B84200D905E02068006800F0D5
:1017900001000028F3D100BF00BF002084F834000E
:1017A00000BF012084F83500E06C10B12046E16CE8
:1017B000884700BFA4E70000740000202DE9F04135
:1017C0000446002500F090FE074614B90120BDE84C
:1017D000F081606A00B100BF00BF002084F83400CF
:1017E00000BF022084F835002068006820F0010066
:1017F000216808600AE000F077FEC01B052805D9C3
:1018000020206065032084F83500E0E72068006848
:1018100000F001000028EED120680568214805404D
:10182000D4E901010843E16808432169084361697B
:101830000843A1690843E1690843216A0843054355
:10184000606A042803D1D4E90B01084305432068EA
:1018500005602068456925F00705606A0543606AF0
:1018600004280DD1A06A0543E06A48B12046FFF77D
:10187000CBF928B140206065012084F83500A6E747
:10188000206845612046FFF7A5F9064694F85C10EC
:101890003F208840B06000206065012084F835005A
:1018A000002094E73F8010F02DE9F04704460D46F4
:1018B00016461F464FF00008D4F8589000BF94F821
:1018C0003400012802D10220BDE8F087012084F80D
:1018D000340000BF94F83500012825D1022084F897
:1018E0003500002060653B46324629462046FFF71A
:1018F000E0F994F85C103F208840C9F8080020689F
:10190000006840F0160021680860206C28B120684B
:10191000006840F00800216808602068006840F016
:1019200001002168086006E000BF002084F8340050
:1019300000BF4FF002084046C6E7000070B50446FD
:1019400000F0D2FD06462546681C10B10448007818
:10195000054400BF00F0C8FD801BA842FAD370BD4B
:101960002C00001070B505460C46002600BF95F807
:101970004500012801D1022070BD012085F84500F5
:1019800000BF022085F84400002C6DD0286806684E
:1019900043480640D4E900010843A1680843E168D0
:1019A0000843A96808432169084361690843E96855
:1019B0000843A1690843E1690843216A0843616A51
:1019C0000843A16A08430643286806602868066839
:1019D0000120FFF7B3FF28680660D4E90B01084334
:1019E000616B0843A16B0843E16B0843216C08431A
:1019F000616C0843A16C0843296848602868466800
:101A00000120FFF79BFF28684660E06C296888602A
:101A1000206D2968C860286886694FF641700640C5
:101A2000B4F85410A06D40EA0140E16D0843216E06
:101A30000843616E0843A16E084306432868866127
:101A4000286886690120FFF779FF28688661D4E954
:101A50001B0108432968C8612868C6690120FFF78F
:101A60006DFF2868C66110E02868066826F4904675
:101A7000D5E902010843064328680660286806681D
:101A80000120FFF75BFF28680660012085F844000D
:101A900000BF002085F8450000BF00BF6CE70000D4
:101AA0000F8120FF70B504460D461646002200BF88
:101AB00094F84500012801D1022070BD012084F86E
:101AC000450000BF022084F84400A56200221FE008
:101AD00005EB42114FF00040086044F2F4504860BA
:101AE000C2EBC21000EB400006EB80008860A069EA
:101AF000012803D1486820F000404860581E9042F9
:101B000004D905EB42102030C86000E0CD60521CC3
:101B10009A42DDD3206800F58050C560012084F82A
:101B2000440000BF002084F8450000BF00BFC4E7A8
:101B300070B504460D461646002200BF94F84500D5
:101B4000012801D1022070BD012084F8450000BFAA
:101B5000022084F84400E56200221BE005EB4211FC
:101B60004FF480100860C2EBC21000EB400006EB9F
:101B700080008860E06918B9086840F44000086097
:101B8000581E904204D905EB42102030C86000E096
:101B9000CD60521C9A42E1D3206800F58050056167
:101BA000012084F8440000BF002084F8450000BFF5
:101BB00000BFC8E72DE9FC41044600250020019044
:101BC0009D4E0027804614B90120BDE8FC8194F8A1
:101BD000440028B9002084F84500204600F03AF976
:101BE00000BF002000909548006840F48040934971
:101BF00008600846006800F48040009000BF00BF05
:101C00008F48006820F400008D490860084600688D
:101C1000216A08438A490860206800F580500068FE
:101C200040F00101206800F58050016000F05CFC8C
:101C300007460FE000F058FCC01BB0F5FA7F09D949
:101C4000032084F8440000BF002084F8450000BF52
:101C50000320BAE7206800F58050006800F001001A
:101C60000028E7D12068056925F01C0501F006FD74
:101C700006467448864205D37348864202D245F030
:101C800008051AE07048864205D36B48864202D2A6
:101C900045F00C0511E06848864203D36B48864244
:101CA00000D20AE06948864205D36948864202D2DA
:101CB00045F0040501E045F01005206805614FF48A
:101CC00000420021204600F0A3FA48B14FF001087D
:101CD00041462046FFF77AF8012084F8440074E773
:101CE000FF20FFF72BFE6068002871D000F0FCFB9E
:101CF000074600BF01AA0121204600F04FF900F07D
:101D0000F3FBC01B41F2883188420FD94FF0010824
:101D100041462046FFF75AF8012084F8440000BFEE
:101D2000002084F8450000BF03204EE7019800F032
:101D300004000428DED182020021204600F068FA67
:101D400048B14FF0010841462046FFF73FF8012017
:101D500084F8440039E700F0C7FB074600BF01AA3A
:101D60000121204600F01AF900F0BEFBC01B41F231
:101D7000883188420FD94FF0010841462046FFF7CD
:101D800025F8012084F8440000BF002084F84500B5
:101D900000BF032019E7019800F020002028DED1C1
:101DA00001AA1F21204600F0F9F848B14FF00108C0
:101DB00041462046FFF70AF8012084F8440004E772
:101DC000019800F0100020B14FF40061E16002E0E2
:101DD0000DE00021E160019800F00400042802D128
:101DE0000021A1601EE04FF48041A1601AE0E0688C
:101DF000C0F3CF00A168C1F34F0140EA0102002106
:101E0000204600F005FA48B14FF00108414620464F
:101E1000FEF7DCFF012084F84400D6E640F6FF70B0
:101E2000FFF78CFD41462046FEF7D0FF012084F8E5
:101E300044000020C9E600000087930344380240B4
:101E400004380140002D3101C00E160200E1F505F5
:101E500080D1F00810B586B00446142101A8FEF721
:101E60001AFA4949206888427ED100BF00BF00208D
:101E700000904648006840F00070444908600846F9
:101E8000006800F00070009000BF00BF00BF00209D
:101E900000900846006840F08060086008460068CE
:101EA00000F08060009000BF00BF00BF00200090E5
:101EB0000846006840F0006008600846006800F0CE
:101EC0000060009000BF00BF00BF00BF0020009076
:101ED0000846006840F0040008600846006800F00A
:101EE0000400009000BF00BF00BF00200090084623
:101EF000006840F0010008600846006800F001003A
:101F0000009000BF00BF00BF00200090084600689E
:101F100040F0020008600846006800F002000090EF
:101F200000BF00BF322001900220029000200390E9
:101F3000032004900B20059001A9154800F0C8F972
:101F4000862001900220029000200390032004903C
:101F50000B20059001A90F4800F0BAF94FF460502A
:101F600001900220029000E00BE00020039003208B
:101F700004900B20059001A9074800F0A9F90EF084
:101F8000F1FA06B010BD0000008002403038024077
:101F90000008024000000240000402402DE9F04128
:101FA00004460E4617460025A84694F844008228A9
:101FB00002D10220BDE8F081822084F8440020682C
:101FC000056905F01C05208A4FF4784101EAC0201C
:101FD0000543481100EA8610054325F0020545F047
:101FE00001052068056100F07FFA804612E000F0EC
:101FF0007BFAA0EB0800B0F5803F09D3012084F8FC
:10200000440000BF002084F8450000BF0320D1E752
:102010002068056905F001000028E8D120684069C2
:1020200080B23860012084F844000020C2E710B577
:10203000044600BF94F84500012801D1022010BDDC
:10204000012084F8450000BF022084F844002046A7
:10205000FFF71AF82046FEF7EFFF2046FEF780FE56
:102060002046FEF75EFE2046FEF745FE012084F87E
:10207000440000BF002084F8450000BF00BFDEE739
:1020800010B5044600BF94F84500012801D1022094
:1020900010BD012084F8450000BF022084F84400F0
:1020A0002046FEF733FE2046FEF71AFE2046FEF7D6
:1020B000AFFF2046FEF754FE2046FEF7D1FF012079
:1020C00084F8440000BF002084F8450000BF00BF32
:1020D000DEE770B5024600230025002400BF92F819
:1020E0004500012801D1022070BD012082F8450081
:1020F00000BF022082F8440049B9012082F8440060
:1021000000BF002082F8450000BF0120ECE7D06A44
:10211000006800F0004048B1122082F8440000BF7F
:10212000002082F8450000BF0120DDE740F2F450B6
:10213000814208D9B1FBF0F3B1FBF0F600FB1610B9
:1021400010B15B1C00E00123012B13D1D06A0068A1
:1021500040F04050D66A3060C1F30C00D66A70601F
:10216000D06A006840F00040D66A3060D06AC0682B
:10217000D06232E000242EE0D06A006820F04050A7
:10218000D66A30602CB9D06A006840F08050D66AB8
:10219000306040F2F450D66A7060581EA04210D1F0
:1021A000D06A006840F00050D66A3060581EC0EB1C
:1021B000C01000EB4000A1EB8005C5F30C00D66A0F
:1021C0007060D06A006840F00040D66A3060D06A23
:1021D000C068D062641C9C42CED3106800F5805069
:1021E000406900F0040048B10426106800F58050F2
:1021F00046610026106800F580504660012082F894
:10220000440000BF002082F8450000BF00BF6BE71C
:102210002DE9F04104460E4617460025A84694F8DD
:102220004400422802D10220BDE8F081422084F817
:1022300044002068056905F01C05208A4FF47841A8
:1022400001EAC0200543481100EA8610054345F025
:10225000020545F00105B8B22168486120680561B2
:1022600000F042F9804612E000F03EF9A0EB0800D1
:10227000B0F5803F09D3012084F8440000BF00205E
:1022800084F8450000BF0320CEE72068056905F00B
:1022900001000028E8D1012084F844000020C3E7B1
:1022A00010B50446204602490968884710BD000061
:1022B0006400002010B5044604480068204020B1A6
:1022C000024804602046FFF7EBFF10BD143C0140BC
:1022D000F8B502460B460025002400200021DCE072
:1022E000012606FA01F51E6806EA0504AC4273D120
:1022F0005E68012E08D05E68022E05D05E68112E41
:1023000002D05E68122E13D190684F000326BE40A3
:10231000B0434F00DE68BE403043906050680126F5
:102320008E40B0431E79C6F300168E403043506095
:10233000D0684F000326BE40B0434F009E68BE40A9
:102340003043D0605E68022E02D05E68122E13D138
:10235000CF0802F1200656F827004E07F70E0F2689
:10236000BE40B0434F07FF0E1E69BE403043CF084A
:1023700002F1200646F8270010684F000326BE40F1
:10238000B0431E7906F003064F00BE403043106094
:102390005E6806F08056B6F1805F7DD100BF0026F2
:1023A0000096404E366846F480463E4F3E603E46BC
:1023B000366806F48046009600BF00BF3A4E8F088C
:1023C00056F827008E07370F0F26BE40B043374E12
:1023D000B24202D1002624E05EE0354EB24201D185
:1023E00001261EE0334EB24201D1022619E0324EE0
:1023F000B24201D1032614E0304EB24201D104268C
:102400000FE02F4EB24201D105260AE02D4EB24216
:1024100001D1062605E02C4EB24201D1072600E08C
:1024200008268F073F0FBE4030431F4E8F0846F8E7
:102430002700264E3068A0435E6806F48036B6F565
:10244000803F00D12043214E3060361D3068A043CC
:102450005E6806F40036B6F5003F00D120431B4EFF
:10246000361D3060361D3068A0435E6806F4801665
:10247000B6F5801F00D12043144E08363060361D5B
:102480003068A0435E6806F40016B6F5001F00D160
:1024900020430E4E0C363060491C1029FFF420AF4B
:1024A000F8BD0000443802400838014000000240F6
:1024B0000004024000080240000C024000100240EC
:1024C0000014024000180240001C0240003C014081
:1024D0000AB1816101E00B04836170470149086022
:1024E0007047000064000020014800687047000049
:1024F0002400001001464AF6AA200A681060002055
:1025000070470000034800680349097808440149FE
:1025100008607047240000102C00001010B50D4812
:10252000006840F400700B4908600846006840F4F9
:10253000806008600846006840F4807008600320EE
:1025400000F0A2F8002000F007F800F02BF80020BF
:1025500010BD0000003C024070B504460E480078F3
:102560004FF47A71B1FBF0F00C490968B1FBF0F55A
:10257000284602F083FE08B1012070BD102C07D25E
:1025800000222146501E00F041F80548046001E099
:102590000120F2E70020F0E72C000010740000207A
:1025A0002800001008B500BF002000900E48006809
:1025B00040F480400C4908600846006800F4804000
:1025C000009000BF00BF00BF00200090081F0068FF
:1025D00040F08050091F08600846006800F08050F5
:1025E000009000BF00BF08BD4438024001460846C5
:1025F000002809DB00F01F0301229A4043099B00D9
:1026000003F1E023C3F8002100BF70472DE9F05F1C
:1026100080460D461646002708F05EFC0746394600
:102620002A46334601F00700C0F1070ABAF1040F49
:1026300002D94FF0040A01E0C0F1070AD14600F1C7
:10264000040ABAF1070F02D24FF0000A01E0A0F12C
:10265000030AD4464FF0010A0AFA09FAAAF1010A5C
:102660000AEA020A0AFA0CFA4FF0010B0BFA0CFB09
:10267000ABF1010B0BEA030B4AEA0B04214640467F
:1026800008F046FCBDE8F09F00BF00F00702064BD3
:1026900019684FF6FF031940044B0B4343EA02212C
:1026A000014B196000BF70470CED00E00000FA0517
:1026B000704702461068416200207047F0B503463B
:1026C00015461868446A21B944EA05401E68B0629C
:1026D00019E01868806A04EB1044002208E01868CA
:1026E00000F5827050F8220004EB1044501CC2B276
:1026F000481E9042F3D844EA0547186800F58270F6
:102700004E1E40F826700020F0BD10B50446D4F8E7
:10271000040406F046FE10BD70B504460D46C5EB38
:10272000C50304F13C0101EB8301CA682946D4F8D2
:10273000040406F07AFD70BD70B504460D46C5EB85
:10274000C50304F5FE7101EB8301CA682946D4F87C
:10275000040406F0DDFD70BD10B50446D4F8040491
:1027600006F022FE10BD70B504460E4606F080004D
:1027700080280AD106F00F00C0EBC00104F13C0034
:1027800000EB81050120687009E006F00F00C0EB46
:10279000C00104F5FE7000EB81050020687006F0B2
:1027A0000F00287000BF94F8BC03012801D102205B
:1027B00070BD012084F8BC0300BF2946206807F0E3
:1027C00045FC00BF002084F8BC0300BF00BFEFE75A
:1027D00070B504460E4606F00F006168884201D9C4
:1027E000012070BD06F0800080280AD106F00F009D
:1027F000C0EBC00104F13C0000EB810501206870D2
:1028000009E006F00F00C0EBC00104F5FE7000EB1C
:102810008105002068700020A87006F00F00287065
:1028200000BF94F8BC03012801D10220D9E70120A0
:1028300084F8BC0300BF2946206807F0EDFE00BF06
:10284000002084F8BC0300BF00BFCAE770B504468F
:102850000D4600BF94F8BC03012801D1022070BDD1
:10286000012084F8BC0300BF05F08000802805D15A
:1028700005F00F01206808F023F902E0206808F055
:1028800009F900BF002084F8BC0300BF00BFE6E7E1
:10289000024601F00F00C0EBC00302F5FE7000EB32
:1028A0008300806970472DE9F04705460E46904643
:1028B0001F464FF0000906F0800080280AD106F07C
:1028C0000F00C0EBC00105F13C0000EB81040120CA
:1028D000607009E006F00F00C0EBC00105F5FE7066
:1028E00000EB81040020607006F00F002070C4F837
:1028F0000880E770607808B12078E080022F01D16D
:102900000020207100BF95F8BC03012802D10220ED
:10291000BDE8F087012085F8BC0300BF2146286888
:1029200007F0B0FA00BF002085F8BC0300BF48469E
:10293000EEE72DE9F04104460E461746984606F0AC
:102940000F00C0EBC00104F5FE7000EB8105EF60E5
:10295000C5F814800020A861687006F00F00287088
:102960002069012800D12F6106F00F0028B9227CD0
:102970002946206807F02CFD04E0227C29462068C7
:1029800007F0DEFE0020BDE8F08170B504460D467C
:1029900005F00F006168884201D9012070BD05F083
:1029A000800080280AD105F00F00C0EBC00104F1BF
:1029B0003C0000EB81060120707007E0C5EBC5010B
:1029C00004F5FE7000EB8106002070700120B070ED
:1029D00005F00F00307000BF94F8BC03012801D14E
:1029E0000220DBE7012084F8BC0300BF31462068E9
:1029F00007F059FE05F00F0028B9217C04F571722B
:102A0000206807F0D1FD00BF002084F8BC0300BFA0
:102A100000BFC3E72DE9F04104460E46174698462D
:102A200006F00F00C0EBC00104F13C0000EB810593
:102A3000EF60C5F814800020A8610120687006F0DE
:102A40000F0028702069012800D12F6106F00F00C7
:102A500028B9227C2946206807F0BAFC04E0227CD1
:102A60002946206807F06CFE0020BDE8F0812DE9C2
:102A7000FE4F044620680290029D206808F04BF843
:102A800000287DD1206808F085F808B9BDE8FE8FE0
:102A9000206808F07FF800F00200022805D12068C5
:102AA000406900F0020021684861206808F072F86F
:102AB00000F01000102846D12068806920F0100036
:102AC000216888610298D0F8209009F00F00C0EBCF
:102AD000C00104F5FE7000EB810BC9F343400228EE
:102AE0001AD147F6F07009EA000030B3C9F30A12B0
:102AF000DBF80C10029808F052F8C9F30A11DBF861
:102B00000C000844CBF80C00C9F30A11DBF81800DC
:102B10000844CBF8180010E0C9F3434006280CD154
:102B2000082204F57171029808F039F8C9F30A1106
:102B3000DBF818000844CBF818002068806940F0E2
:102B4000100021688861206808F024F800F4002053
:102B5000B0F5002F52D10026206807F0EBFF824627
:102B600049E00AF00100E8B3F1B2206808F005F886
:102B7000804608F0010058B1012105F5306000E001
:102B800021E200EB461081603146204603F04EFD05
:102B900008F00800082809D1082105F5306000EB8D
:102BA000461081603146204603F00EFD08F010000B
:102BB000102805D1102105F5306000EB461081602A
:102BC00008F02000202805D1202105F5306000EB19
:102BD0004610816008F40050B0F5005F08D14FF452
:102BE000005100E004E005F5306000EB4610816024
:102BF000761C4FEA5A0ABAF1000FB2D1206807F0EA
:102C0000C9FF00F48020B0F5802F7ED1206807F046
:102C100087FF8246002683E00AF0010000287CD06E
:102C2000F1B2206807F090FF804608F00100F0B391
:102C300006F00F0101208840019040F63400415910
:102C4000019821EA000040F634014851012105F5C0
:102C5000106000EB461081602069012824D1C6EB8A
:102C6000C60104F13C0000EB8100C6EBC602C1685E
:102C700004F13C0000EB820080680144C6EBC60210
:102C800004F13C0000EB8200C1606EB9C6EBC601E6
:102C900004F13C0000EB8100406928B904F5717231
:102CA0000121206807F080FCF1B2204600E001E03D
:102CB000FFF732FD08F00800082805D1082105F5C6
:102CC000106000EB4610816008F01000102805D15C
:102CD000102105F5106000EB4610816008F04000FF
:102CE000402805D1402105F5106000EB46108160B9
:102CF00008F00200022805D1022105F5106000EB62
:102D00004610816008F0800001E00DE005E08028B9
:102D100003D13146204603F047FD761C4FEA5A0A9C
:102D2000BAF1000F7FF478AF206807F033FF00F0AE
:102D30000040B0F1004F1CD140F60400405920F093
:102D4000010140F60400415194F8F403012807D131
:102D5000002084F8F40300212046FFF7A9FC02E0DC
:102D6000204600F063FA2068406900F000402168C6
:102D70004861206807F00EFF00F40060B0F5006FB6
:102D80000ED140F60800405900F0010010B1204675
:102D900000F0A4FA2068406900F4006021684861EE
:102DA000206807F0F7FE00F48050B0F5805F7DD119
:102DB00040F60400405920F0010140F60400415162
:102DC0001021206807F07CFE00273EE04FF67F319F
:102DD00005F5106000EB4710816005F5106000EB11
:102DE0004710006820F4001105F5106000EB471053
:102DF000016005F5106000EB4710006840F00061CD
:102E000005F5106000EB471001604FF67F3105F5C6
:102E1000306000EB4710816005F5306000EB471033
:102E2000006820F4001105F5306000EB47100160E8
:102E300005F5306000EB4710006840F0006105F5D3
:102E4000306000EB471001607F1C6068B842BDD85D
:102E500040F61C00405940F0011140F61C00415161
:102E6000206B70B1D5F8840840F00B01C5F88418C8
:102E700040F64400405940F00B0140F644004151F7
:102E80000FE040F61400405942F22B01084340F68F
:102E900014014851081F405940F00B014FF40160E4
:102EA0004151D5F8000820F4FE6000E00DE0C5F8BF
:102EB0000008217C04F57172206807F075FB20681A
:102EC000406900F4805021684861206807F062FE84
:102ED00000F40050B0F5005F17D1206807F03AF811
:102EE000206807F005FEE06000F0C8FB0090227B40
:102EF0002068009907F09EFE204600F07FF92068C8
:102F0000406900F4005021684861206807F042FEE3
:102F100000F00800082808D1204600F08EF920684B
:102F2000406900F0080021684861206807F032FE1F
:102F300000F48010B0F5801F0AD1002631462046EB
:102F400000F043F82068406900F48010216848616F
:102F5000206807F01FFE00F40010B0F5001F0AD132
:102F600000263146204600F039F82068406900F418
:102F7000001021684861206807F00CFE00F08040D6
:102F8000B0F1804F08D12046FFF7BFFB20684069B1
:102F900000F0804021684861206807F0FBFD00F0E8
:102FA000040004280FD12068D0F8049009F0040030
:102FB000042802D12046FFF7CFFB2068406840EA92
:102FC00009002168486000BF60E570B504460D4601
:102FD0002946D4F8040406F063FA70BD70B50446BF
:102FE0000D462946D4F8040406F05DFA70BD70B5AC
:102FF0008AB0044614B901200AB070BD266894F85E
:10300000BD0328B9002084F8BC03204600F0A2F8D4
:10301000032084F8BD03F06B00F4807008B9002130
:103020002161206807F0CCF9282204F110016846DC
:10303000FDF70AF994E80F0006F0A0FF20B1022086
:1030400084F8BD030120D7E70021206807F0B8FD10
:10305000002531E00121C5EBC50204F13C0000EB85
:1030600082004170C5EBC50104F13C0000F821501D
:10307000C5EBC50100EB8100C5800021C5EBC50291
:1030800004F13C0000EB8200C170C5EBC50204F105
:103090003C0000EB82008160C5EBC50204F13C00FE
:1030A00000EB8200C160C5EBC50204F13C0000EBFF
:1030B00082004161681CC5B26068A842CAD8002578
:1030C0002AE00021C5EBC50204F5FE7000EB82008A
:1030D0004170C5EBC50104F5FE7000F821500021D8
:1030E000C5EBC50200EB8200C170C5EBC50204F55B
:1030F000FE7000EB82008160C5EBC50204F5FE7036
:1031000000EB8200C160C5EBC50204F5FE7000EB68
:1031100082004161681CC5B26068A842D1D82822EB
:1031200004F110016846FDF78FF894E80F0007F0EE
:1031300057F820B1022084F8BD0301205CE700208D
:1031400084F83800012084F8BD03206807F036F8C1
:10315000002051E710B586B00446142101A8FDF700
:103160009AF82068B0F1A04F42D100BF0020009033
:103170002048006840F001001E49086008460068C9
:1031800000F00100009000BF00BF4FF4C05001905C
:103190000220029000200390032004900A20059052
:1031A00001A91548FFF794F800BF1248001D0068F8
:1031B00040F080000F49091D086000BF002000900A
:1031C0000C481430006840F480400A49143108600B
:1031D0000846006800F48040009000BF00BF00BFB8
:1031E000002211464320FFF711FA4320FFF7FEF9B2
:1031F00006B010BD303802400000024070B50446F1
:103200000125E06808B9002506E0E068022801D140
:10321000012501E0FDF752FF2946D4F8040406F029
:10322000BEF9D4F8040406F071F970BD10B5044677
:10323000D4F8040406F097F910BD10B50446D4F88C
:10324000040406F09BF910BD70B504460D4600BF9E
:1032500094F8BC03012801D1022070BD012084F83C
:10326000BC0300BF84F838502946206807F0C3FC2F
:1032700000BF002084F8BC0300BF00BFEDE710B51D
:10328000044604F57171D4F8040406F09FF910BDEA
:1032900070B50446256800BF94F8BC03012801D12D
:1032A000022070BD012084F8BC0300BFA06A012881
:1032B00006D1A069012803D0A86B40F48030A86330
:1032C000206807F0DFFB206806F066FF00BF0020E3
:1032D00084F8BC0300BF00BFE3E7000010B504465C
:1032E000D4F8040406F0CFF92068D0F8000E40F0BE
:1032F00001002168C1F8000E206A28B10348006867
:1033000040F006000149086010BD000010ED00E02B
:10331000024949688143014A51607047007000408A
:10332000024949680143014A5160704700700040FA
:103330000748006840F00200054908600548006839
:1033400040F004000349086000BF00BF30BF704771
:103350000070004010ED00E0F8B50446002500269E
:10336000207800F0010020B9207800F00400042843
:103370002FD100205B498866FFF7B6F8054606E0C6
:10338000FFF7B2F8401B022801D90320F8BD5648C8
:103390000068C0F3C0600028F2D160688101207A23
:1033A00041EA007050498431086001204D49886627
:1033B000FFF79AF8054606E0FFF796F8401B02284B
:1033C00001D90320E2E748480068C0F3C060002844
:1033D000F2D0207800F0020002287DD100BF00204A
:1033E000009041484030006840F080503E494031F4
:1033F00008600846006800F08050009000BF00BFE1
:103400003A48006840F4807038490860FFF76CF86B
:10341000054606E0FFF768F8401B022801D90320A3
:10342000B4E73248006800F480700028F2D02E48DB
:103430007030006800F440764EB3A08900F440700C
:10344000B04224D028487030006820F44076012033
:103450002749086000200860234870300660006833
:1034600000F0010098B1FFF73FF8054608E0FFF7CC
:103470003BF8401B41F28831884201D9032085E79F
:10348000194870300068C0F340000028EFD000BF3A
:10349000A08900F44070B0F5407F0CD1124808308C
:1034A000006820F4F810134AE168114008430E49FF
:1034B0000831086007E00C480830006820F4F81074
:1034C000094908310860084870300068A189C1F3D3
:1034D0000B010843044900E002E07031086000BFBE
:1034E000002053E7000047420038024000700040CF
:1034F000400E4742FFFCFF0F70B504460D460CB965
:10350000012070BD5848006800F00F00A84209D2A1
:1035100055490D700846006800F00F00A84201D020
:103520000120EEE7207800F0020002281DD120786B
:1035300000F00400042805D14C48006840F4E05035
:103540004A490860207800F00800082805D147485B
:10355000006840F46040454908604448006820F035
:10356000F000A168084341490860207800F001009C
:10357000A8B36068012807D13C4808380068C0F348
:103580004040B8B90120BCE76068022802D06068FA
:10359000032807D1354808380068C0F3406048B9AF
:1035A0000120AEE7314808380068C0F3400008B990
:1035B0000120A6E72D48006820F003006168084359
:1035C0002A490860FEF790FF064609E0FEF78CFFE7
:1035D000801B41F28831884202D9032091E707E03D
:1035E0002248006800F00C006168B0EB810FEDD15B
:1035F0001D48006800F00F00A84209D91A490D7053
:103600000846006800F00F00A84201D0012078E7CA
:10361000207800F00400042807D11448006820F442
:10362000E050E168084311490860207800F0080084
:10363000082808D10D48006820F46040216940EA5C
:10364000C1000A49086000F01FF808490968C1F381
:103650000311074A515CC8400649086006480068E3
:10366000FEF77AFF00204CE7003C02400838024099
:10367000AC95010874000020280000100148006883
:1036800070470000740000202DE9F0470024002559
:103690000026A1462548006800F00C0020B104284F
:1036A00005D008283AD105E0DFF8849039E0DFF84A
:1036B000849036E01D48001F006800F03F041B485E
:1036C000001F006800F4800078B11A481749091FEC
:1036D0000968C1F38811A0FB01700146224600234E
:1036E0003846FCF76DFD05460EE011480F49091FED
:1036F0000968C1F38811A0FB01700146224600232E
:103700003846FCF75DFD05460848001F0068C0F319
:103710000140401C4600B5FBF6F902E0DFF81090CE
:1037200000BF00BF4846BDE8F087000008380240EF
:103730000024F40040787D0170B586B006460C4642
:10374000154646BB00BF002000902848006840F0A6
:103750000100264908600846006800F0010000905A
:1037600000BF00BF88150190022002900320049042
:1037700000200390059001A91D48FEF7A9FD1B48F4
:103780002838006820F0EC6044EA05010843174936
:103790002839086027E000BF002000901348006827
:1037A00040F00400114908600846006800F0040079
:1037B000009000BF00BF4815019002200290032036
:1037C000049000200390059001A90A48FEF780FDAF
:1037D00006482838006820F0784044EAC5010843CC
:1037E00002492839086006B070BD00003038024038
:1037F0000000024000080240F8B504460CB9012060
:10380000F8BD207800F00100002874D0F948006865
:1038100000F00C0004280DD0F648006800F00C0001
:10382000082813D1F348001F006800F48000B0F5A9
:10383000800F0BD1EF4808380068C0F340400028E3
:1038400059D06068002856D10120D9E700BF6068D0
:10385000B0F5803F08D1E7480838006840F4803070
:10386000E449083908601EE06068B0F5A02F0DD16A
:10387000E0480838006840F48020DE4908390860D4
:103880000846006840F4803008600CE0D9480838E9
:10389000006820F48030D74908390860084600687D
:1038A00020F48020086000BF606890B1FEF71CFE25
:1038B000054606E0FEF718FE401B642801D90320E8
:1038C0009EE7CC4808380068C0F340400028F1D09B
:1038D00011E0FEF709FE054606E0FEF705FE401B77
:1038E000642801D903208BE7C24808380068C0F378
:1038F00040400028F1D1207800F0020002285FD17A
:10390000BC48006800F00C0058B1BA48006800F0EC
:103910000C0008281CD1B748001F006800F4800084
:10392000B0B9B44808380068C0F3400020B1E0687E
:10393000012801D0012063E7AE480838006820F074
:10394000F800216940EAC100AA490839086037E057
:10395000E06800B30120A8490860FEF7C5FD0546F0
:1039600006E0FEF7C1FD401B022801D9032047E70E
:10397000A04808380068C0F340000028F1D09D48F6
:103980000838006820F0F800216940EAC100994930
:103990000839086014E0002097490860FEF7A4FD8C
:1039A000054606E0FEF7A0FD401B022801D90320D2
:1039B00026E7904808380068C0F340000028F1D19D
:1039C000207800F0080008282CD16069A8B10120F7
:1039D0008A490860FEF788FD054606E0FEF784FD8B
:1039E000401B022801D903200AE782486C30006896
:1039F000C0F340000028F1D014E000207F490860A7
:103A0000FEF772FD054606E0FEF76EFD401B02283C
:103A100001D90320F4E677486C300068C0F3400019
:103A20000028F1D1207800F00400042870D100278C
:103A300070483830006800F0805090B900BF002016
:103A400000906C483830006840F080506949383147
:103A500008600846006800F08050009000BF00BF7A
:103A600001276748006800F48070B0B964480068B6
:103A700040F4807062490860FEF736FD054606E0B6
:103A8000FEF732FD401B022801D90320B8E65C484E
:103A9000006800F480700028F2D000BFA068012800
:103AA00008D154486830006840F00100514968313D
:103AB00008601DE0A06805280DD14E4868300068F8
:103AC00040F004004B49683108600846006840F047
:103AD000010008600CE047486830006820F00100F1
:103AE0004449683108600846006820F00400086016
:103AF00000BFA068A8B1FEF7F7FC054609E0FEF795
:103B0000F3FC401B41F28831884202D9032077E65A
:103B100026E0384868300068C0F340000028EED046
:103B200013E0FEF7E1FC054608E0FEF7DDFC401B74
:103B300041F28831884201D9032061E62D4868307E
:103B40000068C0F340000028EFD1012F07D12948B9
:103B50003830006820F0805026493831086000BFB6
:103B6000A069002845D02348006800F00C00082810
:103B70005DD0A069022845D100201F490866FEF7E4
:103B8000B3FC054606E0FEF7AFFC401B022801D956
:103B9000032035E6174808380068C0F34060002865
:103BA000F1D1D4E907010843616A40EA8111012299
:103BB000A06AC2EB500041EA00412C20005D41EABE
:103BC00000600C49091F086001200B490866FEF7D8
:103BD0008BFC054606E0FEF787FC401B022801D956
:103BE00003200DE6034808380068C0F34060002851
:103BF000F1D03FE00838024000004742800E4742C3
:103C00000070004000201C490866FEF76DFC054668
:103C100006E0FEF769FC401B022801D90320EFE50E
:103C200016480068C0F340600028F2D122E0A06985
:103C3000012800D1E4E51148001D066806F4800162
:103C4000E069814214D106F03F01206A81420FD120
:103C500047F6C0703040616A884209D106F44031AD
:103C6000A06A814204D106F07061E06A814201D00D
:103C70000120C5E50020C3E50000474200380240AE
:103C800010B5044601480068804710BD6C00002054
:103C900018B5034600BF187F012801D1022018BDC6
:103CA0000120187700BF0220587700BFCA201C6887
:103CB000606253201C68606200BF1868806800F46E
:103CC000806000B34148006840094FF47A74B0FB4B
:103CD000F4F06043009000BF0098441E009460B967
:103CE00000BFFF201C68606200BF0320587700BF40
:103CF0000020187700BF0320D1E71868C068C0F320
:103D000080000028E8D11868806820F480601C6872
:103D1000A0602E48006840094FF47A74B0FBF4F0BC
:103D20006043009000BF0098441E009460B900BF3B
:103D3000FF201C68606200BF0320587700BF00208E
:103D4000187700BF0320AAE71868C068C0F3800096
:103D50000028E8D0186841611868806820F00700E2
:103D60001C68A0601868806810431C68A060184830
:103D7000006840F48000164C206015480830006848
:103D800040F48000124C083420601868C06800F0CD
:103D9000800060F490601C68E0601868806840F4FF
:103DA00080401C68A0601868806840F480601C68CF
:103DB000A06000BFFF201C68606200BF0120587730
:103DC00000BF0020187700BF00BF68E77400002024
:103DD000003C014010B504460348006810B1024899
:103DE0000068804710BD00007000002010B5044638
:103DF0002068C068C0F3802050B12046FFF7EAFF7A
:103E00002068C06800F0800060F490602168C8609D
:103E10004FF48000024908600120607710BD000067
:103E2000143C014010B5044601480068804710BDAD
:103E30006800002010B5044620688068C0F3003098
:103E400078B12068C068C0F3002050B12046FFF769
:103E5000E9FF2068C06800F0800060F4C07021684D
:103E6000C86020688068C0F3403078B12068C068BE
:103E7000C0F3402050B12046FFF702FF2068C06821
:103E800000F0800060F420702168C8604FF40030BA
:103E9000024908600120607710BD0000143C014019
:103EA00070B505460B4616460024286840680E4942
:103EB00000EA0104200CD870C4F30420587004F008
:103EC0003F009870C4F3423018705EB9D87802F0A1
:103ED0005DFDD870587802F059FD5870987802F05E
:103EE00055FD9870002070BD3FFFFF0070B504467F
:103EF0000B46164600252068806A586020680069D5
:103F0000C0F30E009860206800680F4900EA0105C0
:103F1000C5F305401870C5F30620587005F07F0002
:103F2000987005F48000000CD8705EB9187802F023
:103F30002DFD1870587802F029FD5870987802F01D
:103F400025FD9870002070BD7F7F7F0010B504466E
:103F50000CB9012010BD607F20B9002020772046D9
:103F600000F060F80220607700BFCA202168486234
:103F700053202168486200BF204602F01FFD40B177
:103F800000BFFF202168486200BF04206077012045
:103F9000E0E720688068224908402168886021693C
:103FA000606808436169084321688968084321689B
:103FB00088602168E068086120680169208941EA19
:103FC0000040216808612068C06820F080002168F6
:103FD000C8602068806800F0200060B9204600F0CA
:103FE0005BFA40B100BFFF202168486200BF042097
:103FF00060770120AEE72068006C20F48020216803
:1040000008642068006CA16908432168086400BF47
:10401000FF202168486200BF01206077002099E7F7
:10402000BFFF8FFF10B504460B492068884212D1AC
:1040300001200A490860002211460320FEF7E6FA33
:104040000320FEF7D3FA002211462920FEF7DEFAFC
:104050002920FEF7CBFA10BD002800403C0E474255
:104060002DE9F84103460C461546002600277C48FA
:10407000006840094FF47A71B0FBF1F048430090BA
:1040800000BF187F012802D10220BDE8F88101207D
:10409000187700BF0220587755BB1868806800F079
:1040A000400000B102E00020E07000BFE06900B90C
:1040B00000E000BF207802F074FC4FEA004860780E
:1040C00002F06FFC48EA0028A07802F06AFC48EA97
:1040D0000008E07848EA004894F8200002F061FC0B
:1040E00048EA0060E1690843616940EA01061FE0AF
:1040F0001868806800F0400000B102E00020E07025
:1041000000BFE06900B900E000BF207800046178DA
:1041100040EA0120A1780843E17840EA014094F8A0
:10412000201040EA0160E1690843616940EA010644
:10413000A169606840EA010700BFCA2019684862A7
:1041400053201968486200BF606AB0F5807F36D19D
:104150001868806820F48070196888601868C068E2
:1041600000F0800060F4C0701968C86000BF00985B
:10417000411E009160B900BFFF201968486200BF6E
:104180000320587700BF0020187700BF03207CE78A
:104190001868C06800F001000028E8D01868C661FF
:1041A000186847641868806840F4807019688860EF
:1041B0001868806840F480501968886035E0186895
:1041C000806820F40070196888601868C06800F082
:1041D000800060F420701968C86000BF0098411E1C
:1041E000009160B900BFFF201968486200BF03203A
:1041F000587700BF0020187700BF032045E71868F4
:10420000C068C0F340000028E8D01868066218684B
:1042100087641868806840F40070196888601868BE
:10422000806840F40050196888600E48006840F4C7
:1042300000300C4908600B480830006840F400303A
:1042400008490831086000BFFF201968486200BFB4
:104250000120587700BF0020187700BF00BF14E787
:1042600074000020003C01402DE9F04104460D4659
:104270001646002700BF207F012802D10220BDE89A
:10428000F0810120207700BF022060774EB9687866
:1042900000F01000102804D1687800F0EF000A3018
:1042A000687086B9E87802F07CFB0304687802F055
:1042B00078FB43EA0023A87802F073FB03432878D5
:1042C00043EA403709E0E8780004697840EA0120D1
:1042D000A9780843297840EA413700BFCA202168FD
:1042E000486253202168486200BF204602F066FB06
:1042F00060B100BFFF202168486200BF04206077E2
:1043000000BF0020207700BF0120B8E716483840E2
:10431000216848602068C06820F080002168C8607B
:104320002068806800F0200080B9204600F0B4F8D2
:1043300060B100BFFF202168486200BF04206077A1
:1043400000BF0020207700BF012098E700BFFF20BA
:104350002168486200BF0120607700BF00202077FD
:1043600000BF00BF8BE700003FFFFF002DE9F041D9
:1043700004460D461646002700BF207F012802D1C3
:104380000220BDE8F0810120207700BF0220607785
:10439000CEB92068806800F0400000B102E0002043
:1043A000E87000BF287802F0FCFA0304687802F095
:1043B000F8FA43EA0023A87802F0F3FA0343E87816
:1043C00043EA004712E02068806800F0400000B136
:1043D00002E00020E87000BF28780004697840EA15
:1043E0000120A9780843E97840EA014700BFCA20C4
:1043F0002168486253202168486200BF204602F0CD
:10440000DDFA60B100BFFF202168486200BF0420D0
:10441000607700BF0020207700BF0120B1E71D4872
:104420003840216808602068806820F48020216876
:104430008860D5E903010843216889680843216839
:1044400088602068C06820F080002168C86020680B
:10445000806800F0200080B9204600F01DF860B1AF
:1044600000BFFF202168486200BF0420607700BFC2
:104470000020207700BF012083E700BFFF202168D4
:10448000486200BF0120607700BF0020207700BF96
:1044900000BF76E77F7F7F0070B504460025206867
:1044A000C06820F0A0002168C860FEF71DF805462E
:1044B00007E0FEF719F8401BB0F57A7F01D9032019
:1044C00070BD2068C06800F020000028F1D00020F6
:1044D000F6E710B50446FCF7F9FA10BD70B58AB0DE
:1044E00004460D46032084F83400606C032820D075
:1044F000B5F5805F04D1A06B40F08050A0631CE054
:10450000B5F5006F07D1204603F0C9FF0646A06B42
:104510003043A06311E03DB9204603F08CFF06460E
:10452000A06B3043A06308E0A06B40F00060A06384
:1045300003E0A06B40F08050A063A06B38B110483E
:1045400021688863012084F834000AB070BD606877
:104550000490A0680590E06806900795606908904F
:10456000A069099007A807C88DE80700206804A97A
:104570000EC903F049F9012084F834000020E4E773
:10458000FF0540007047000010B50246506E800FD6
:104590000870506EC0F383604870506EC0F30160C5
:1045A0008870506E000CC870B2F86400000A087180
:1045B00092F864004871906E000DC880906EC0F350
:1045C000034008726820805AC0F3C03048726820E7
:1045D000805AC0F3803088726820805AC0F340301F
:1045E000C8726820805AC0F30030087300204873F6
:1045F000506C002836D16820805A8005030DD06E9B
:1046000043EA90700861D06EC0F3C2600875D06E46
:10461000C0F302604875D06EC0F342508875D06E0A
:10462000C0F38240C875D06EC0F3C2300876086906
:10463000401C50650B7E506D03F007039B1C01244A
:104640009C4060435065087A00F00F0301209840B9
:104650009065D2E915035B0A5843D0654FF40073A7
:10466000136621E0506C012813D16820805C80061D
:10467000830AD06E43EA104008610869401C830237
:104680005365536DD3654FF400739365936D136653
:104690000AE02E4813689863906B40F08050906356
:1046A000012082F8340010BD6C20805AC0F38030A5
:1046B00001F8190F6C20805AC0F3C61048706C20A6
:1046C000805C00F07F008870106FC00FC870106FA2
:1046D000C0F341700871106FC0F382604871106FB1
:1046E000C0F383508871106FC0F34050C871002030
:1046F0000872106FC0F3004048727020805AC0F3F7
:10470000C03088727020805AC0F38030C872702028
:10471000805AC0F3403008737020805AC0F30030D4
:1047200048737020805AC0F3812088737020805AAB
:10473000C0F30120C8737020805CC0F34600087489
:104740000120487419390020ADE70000FF05400042
:104750000246506C0860906C4860D06C8860106DA8
:10476000C860506D0861906D4861D06D8861106EB1
:10477000C86100207047F8B50446002000906946E3
:10478000204603F040FE054615B1A06B2843A06308
:104790000098C0F343263046F8BD000070B50446CB
:1047A000256B2068406BC0F3C03030B105F00800C5
:1047B00018B1204603F002FEF8E02068406BC0F319
:1047C0000020002862D04FF4807021688863206840
:1047D000C06B4CF23A3188432168C8632068C06AD4
:1047E00020F001002168C86205F0080038B305F028
:1047F000020010B905F0200050B1206803F0C4F9A0
:1048000006462EB1A06B3043A0632046FFF7BAFEE8
:1048100040F23A5021688863012084F83400002077
:10482000206305F0010010B905F0020018B1204620
:1048300000F048FBBAE0204600F049FBB6E005F086
:1048400080000028B8D005F0200050B1206803F0A7
:104850009BF906462EB1A06B3043A0632046FFF7BC
:1048600091FE05F001000028A6D105F00200002805
:10487000A2D12068C06A20F008002168C862012027
:1048800084F83400204600F022FB8FE02068406B63
:10489000C0F3803030B105F0080018B1204603F0B5
:1048A00032FE83E02068406B40F23A21084008B1B4
:1048B000012000E00020002878D02068406BC0F381
:1048C000400018B1A06B40F00200A0632068406B6C
:1048D000C0F3C00018B1A06B40F00800A0632068CE
:1048E000406BC0F3401018B1A06B40F02000A063F3
:1048F0002068406BC0F3001018B1A06B40F01000AE
:10490000A0632068406BC0F3402018B1A06B40F05A
:104910000800A06340F23A70216888632068C06B89
:1049200040F23A3188432168C863206803F02CF9CB
:10493000A16B0843A06305F0080040B1012084F892
:104940003400002020632046FFF71CFE2EE005F017
:10495000800000B305F0100010B905F0200050B140
:104960001348E16B0865E06BFCF7F4FD98B1E06B70
:1049700003F07EFB1AE005F0010010B905F002001B
:1049800050B10C48216C0865206CFCF7E3FD10B1B8
:10499000206C03F049FB09E00020A063012084F8AB
:1049A0003400002020632046FFF793FD70BD000017
:1049B000718000082980000810B504460CB9012058
:1049C00010BD94F8340020B900202077204600F074
:1049D00053F8032084F83400204600F00BF808B1A7
:1049E0000120EDE70020A0632063012084F834005B
:1049F0000020E5E770B58AB00446002004900590D9
:104A00000690079008907620099007A807C88DE8BF
:104A10000700206804A90EC902F0F6FE064616B18A
:104A200001200AB070BD002012490860206802F021
:104A300005FF01200F49A039C1F8A000204603F06E
:104A400057FC05463DB1012084F83400A06B284393
:104A5000A0630120E5E7204603F0C8FB05463DB111
:104A6000012084F83400A06B2843A0630120D8E71C
:104A70000020D6E7A080254210B586B00446142158
:104A800001A8FBF708FC5849206888427ED100BF86
:104A9000002000905548006840F4006053490860C9
:104AA0000846006800F40060009000BF00BF00BF2F
:104AB000002000904D481438006840F004004B4935
:104AC000143908600846006800F00400009000BF38
:104AD00000BF00BF002000900846006840F00800BA
:104AE00008600846006800F00800009000BF00BFA2
:104AF0004FF4F85001900220029000200390032010
:104B000004900C20059001A93948FDF7E1FB042031
:104B100001900220029000200390032004900C20BA
:104B2000059001A93348FDF7D3FB334833490860AA
:104B30004FF000604860002130488160C1604FF450
:104B40008061016189004161890081612021C16129
:104B50000021016204214162032181624FF40001BE
:104B6000C16289100163FCF729FE08B1FCF7A6FABF
:104B700000BF22482064846300BF1F48483020499A
:104B800008604FF000604860402100E029E01C48C8
:104B900081600021C1604FF4806101618900416141
:104BA000890081612021C1610021016204214162EB
:104BB000032181624FF40001C16289100163FCF797
:104BC000FDFD08B1FCF77AFA00BF0D48E06384638D
:104BD00000BF002205213120FDF718FD3120FDF72F
:104BE00005FD06B010BD0000002C01404438024015
:104BF00000080240000C0240586402406453002048
:104C0000C45300202DE9FF4F89B004468B469946D6
:104C1000DDF858A0FDF768FC02900B9800905D4607
:104C2000BBF1000F07D1A06B40F00060A063012032
:104C30000DB0BDE8F08F94F8340001287ED100203B
:104C4000A063009800EB0901E06D814205D9A06BDB
:104C500040F00070A0630120EAE7032084F83400EC
:104C600000202168C862606C012802D000984002D0
:104C700000904FF40071206802F042FE8046B8F1C7
:104C8000000F0AD08E4821688863A06B40EA0800B4
:104C9000A063012084F83400CAE74FF0FF3003908E
:104CA0004FEA4920049090200590022006900020B1
:104CB00007900120089003A9206802F078FDB9F15F
:104CC000010F07D9022020632068009902F080FEBE
:104CD000804606E0012020632068009902F094FEDF
:104CE0008046B8F1000F0DD0754821688863A06B2D
:104CF00040EA0800A063012084F83400002020630B
:104D0000012095E7049E3AE02068406B00F40040E3
:104D1000F0B1EEB10020019017E0206802F097FD9D
:104D200007462F706D1C761E380A28706D1C761E83
:104D3000380C28706D1C761E380E00E0BAE0287022
:104D40006D1C761E0198401C019001980828E4D340
:104D5000FDF7CAFB0299401A504502D2BAF1000F82
:104D60000DD1574821688863A06B40F00040A063D4
:104D7000012084F8340000202063032058E72068D5
:104D8000406B40F22A3108400028BDD02068406BBB
:104D900000F48070D0B1B9F1010F17D9606C03280D
:104DA00014D0206802F0F0FE8046B8F1000F0DD05C
:104DB000434821688863A06B40EA0800A063012093
:104DC00084F8340000202063012031E72068406B24
:104DD00000F0080068B13A4821688863A06B40F091
:104DE0000800A063012084F8340000202063012023
:104DF0001EE72068406B00F0020068B1304821686F
:104E00008863A06B40F00200A063012084F83400A6
:104E10000020206301200BE72068406B00F0200099
:104E200068B1274821688863A06B40F02000A06328
:104E3000012084F83400002020630120F8E629E0F6
:104E4000206802F004FD07462F706D1C761E380A9C
:104E500028706D1C761E380C28706D1C761E380E5E
:104E600028706D1C761EFDF73FFB0299401A5045D5
:104E700002D2BAF1000F0DD1114821688863A06BEE
:104E800040F00040A063012084F83400002020633B
:104E90000120CDE62068406B00F4001008B1002E20
:104EA000CED140F23A5021688863012084F8340062
:104EB0000020BDE6A06B40F00050A0630120B7E6E3
:104EC000FF05400010B50446FBF74EFE10BD10B5BF
:104ED0000446FBF763FE10BD2DE9F04F89B0044690
:104EE000894693469846FDF7FFFA0290DA464E4609
:104EF000B9F1000F07D1A06B40F00060A063012062
:104F000009B0BDE8F08F94F8340001287ED100206C
:104F1000A0630AEB0801E06D814205D9A06B40F067
:104F20000070A0630120EBE7032084F83400002028
:104F30002168C862606C012801D04FEA4A2A4FF408
:104F40000071206802F0DCFC05464DB1764821680E
:104F50008863A06B2843A063012084F83400CFE766
:104F60004FF0FF3003904FEA4820049090200590C6
:104F70000020069007900120089003A9206802F005
:104F800016FCB8F1010F07D9202020635146206894
:104F900002F018FE054606E0102020635146206806
:104FA00002F02CFE054665B15F4821688863A06B5E
:104FB0002843A063012084F83400002020630120EE
:104FC0009EE7049F43E02068406B00F4804040B3BC
:104FD0003FB30020019021E030780090761C7F1EC6
:104FE0003078009941EA00200090761C7F1E3078CE
:104FF000009941EA00400090761C7F1E30780099AD
:1050000041EA00600090761C7F1E00E085E0694662
:10501000206802F034FC0198401C01900198082897
:10502000DAD3FDF761FA0299411A1298814201D24E
:10503000129860B93C4821688863A06B2843A0633C
:10504000012084F8340000202063032058E7206802
:10505000406B40F21A3108400028B4D02068406B01
:1050600000F48070B8B1B8F1010F14D9606C032856
:1050700011D0206802F088FD054665B12A482168F4
:105080008863A06B2843A063012084F834000020CB
:105090002063012034E72068406B00F0080068B10D
:1050A000214821688863A06B40F00800A0630120BC
:1050B00084F8340000202063012021E72068406B41
:1050C00000F0020068B1184821688863A06B40F0C6
:1050D0000200A063012084F8340000202063012036
:1050E0000EE72068406B00F0100068B10E482168A0
:1050F0008863A06B40F01000A063012084F83400A6
:10510000002020630120FBE640F23A5021688863CA
:10511000012084F834000020F2E6A06B40F000503B
:10512000A0630120ECE60000FF05400010B5044636
:105130000CB9012010BD606A00B900BF0021A16256
:1051400094F8510028B9002084F85000204600F05F
:1051500033F8022084F851002068006820F04000F5
:1051600021680860D4E901010843E1680843216926
:10517000084361690843218B01F400710843E16928
:105180000843216A0843A16A084321680860042192
:10519000A06901EA1040616A0843216848602068FC
:1051A000C06920F400602168C861002060650120AA
:1051B00084F851000020BDE710B586B004461421E4
:1051C00001A8FBF768F82949206888424CD100BF44
:1051D000002000902648006840F480502449086070
:1051E0000846006800F48050009000BF00BF00BF78
:1051F000002000901E481438006840F001001C494F
:10520000143908600846006800F00100009000BFF3
:1052100000BF00BF002000900846006840F0020078
:1052200008600846006800F00200009000BF00BF60
:10523000602001900220029000200390032004903F
:105240000520059001A90B48FDF742F820200190A8
:105250000220029000200390032004900520059076
:1052600001A90548FDF734F806B010BD0030014033
:1052700044380240000002400004024070B5044679
:105280002546681EB0F1807F01D301200FE0681E23
:105290004FF0E02148610F214FF0FF3005F038FE5C
:1052A00000204FF0E021886107200861002070BDD8
:1052B00000BFFEE730B50B46002100BF16E00A2410
:1052C000B4EB107F05D9302404EB107403F81140BF
:1052D00005E0412404EB10740A3C03F8114000017E
:1052E00000254C00641C1D554C1CE1B29142E6DBCC
:1052F00030BD000008B5054909680143034A116043
:10530000114609680140009100BF08BD30380240D5
:10531000F0B502460B4600240021186890FAA0F070
:10532000B0FA80F48AE00125A540186800EA05017A
:1053300000297DD05868012802D0586802281CD165
:105340009868956891FAA1F6B6FA86F67700032672
:10535000BE40B54391FAA1F6B6FA86F6760000FA99
:1053600006F63543956000BFD86855688D4301FB4C
:1053700000F63543556000BF00BF1869D56891FA43
:10538000A1F6B6FA86F677000326BE40B54391FA39
:10539000A1F6B6FA86F6760000FA06F63543D56031
:1053A00000BF5868022831D191FAA1F0B0FA80F01C
:1053B000082814D25869156A91FAA1F6B6FA86F649
:1053C000B7000F26BE40B54391FAA1F6B6FA86F6AD
:1053D000B60000FA06F63543156200BF16E05869BC
:1053E000556A0E0A96FAA6F6B6FA86F6B7000F26A2
:1053F000BE40B5430E0A96FAA6F6B6FA86F6B60091
:1054000000FA06F63543556200BF00BF58681568BC
:1054100091FAA1F6B6FA86F677000326BE40B543A8
:1054200091FAA1F6B6FA86F6760000FA06F600E0E2
:1054300003E03543156000BF00BF641C1868E040FE
:1054400000287FF470AFF0BD10B5044601F03CFABF
:105450002060206801F004FA6060606801F010FAD2
:10546000A060606801F01EFAE06010BD02480068AC
:10547000C0F388107047000004380240016921F42D
:1054800090410161416921F02A0141617047C16881
:1054900041F40051C16070472DE9FF4104460D46BB
:1054A00001270026204600F05EF8002845D1E96873
:1054B0006868084329690843A9690843E16849F213
:1054C0000C6291430843E060A868216921F44051CF
:1054D0000143216100BF6869616921F440710143A2
:1054E000616100BF6846FFF7AFFF1648844201D1F3
:1054F000039E17E01448844201D1029E12E0134833
:10550000844201D1029E0DE01148844201D1039EE4
:1055100008E01048844201D1029E03E00E48844214
:1055200000D1029E4EB1286838B10027314620468E
:105530002B68AA6900F01CF800BF384604B0BDE82B
:10554000F08100000010014000440040004800408D
:1055500000140140004C0040005000400146086823
:10556000C0F3401070470146C868C0F34030704730
:105570002DE9FC5F06460C4691461D46B9F5004FE5
:1055800068D10220A0FB057003461920A4FB00A0EF
:1055900001463A465046FAF713FE6421B0FBF1F09B
:1055A0004FEA001A0220A0FB05710B461920A4FB4C
:1055B00000B13A465846FAF703FE83460220A0FBA4
:1055C000057003461920A4FB00013A46CDE900010D
:1055D000FAF7F6FD6421B0FBF1F000EBC00101EB3E
:1055E0000010ABEB8000322101EBC0006421B0FB66
:1055F000F1F000F0F8000AEB400A0220A0FB057071
:1056000003461920A4FB00B13A465846FAF7D8FDE4
:1056100083460220A0FB057003461920A4FB00016D
:105620003A46CDE90001FAF7CBFD6421B0FBF1F079
:1056300000EBC00101EB0010ABEB8000322101EB6D
:10564000C0006421B0FBF1F000F00700504480B2CC
:10565000B06067E00420A0FB057003461920A4FB9E
:1056600000A001463A465046FAF7AAFD82460420B9
:10567000A0FB05711920A4FB00B084463A460B46F6
:1056800058466146FAF79CFD6421B0FBF1F000EB4F
:10569000C00101EB0010AAEB8000322101EB0010E9
:1056A0006421B0FBF1F000F0F00A0420A0FB0570CB
:1056B00003461920A4FB00B001463A465846FAF7C3
:1056C0007FFD6421B0FBF1F00AEB001A0420A0FB7F
:1056D000057003461920A4FB00B13A465846FAF774
:1056E0006FFD83460420A0FB057003461920A4FB30
:1056F00000013A46CDE90001FAF762FD6421B0FBF2
:10570000F1F000EBC00101EB0010ABEB80003221A7
:1057100001EB00106421B0FBF1F000F00F005044E9
:1057200080B2B060BDE8FC9F70B50546D5F8BC42BC
:1057300041F210002044007B50B941F21000204497
:10574000806828B1607A18B90121284603F079FFF2
:105750008121284603F075FF607A022807D1812154
:10576000284603F06EFF0121284603F06AFF70BD52
:1057700070B50546D5F8BC4241F21000204440689F
:1057800041F230012144486041F210002044806819
:1057900041F23001214488600121284603F027FEB0
:1057A0001F2816D141F2100000592E49884210D10D
:1057B00041F210002044407B01280AD841F2100039
:1057C0002044807B28B141F210002044807B1028C7
:1057D0000ED941F210002044417B202305222846A7
:1057E00001F0BDFD022060722846FFF79DFF36E004
:1057F00041F210002044417B41F2100022180F3288
:10580000284601F0B1F900280BDA207A052804D1E6
:105810000121284600F0D6F821E02846FFF784FF52
:105820001DE0207A022819D0207A012816D0207A8B
:10583000032813D0E06830B104F110012846E26873
:1058400000F0E0F80BE0E06820B90021284600F005
:10585000B9F804E02846FFF767FF00E070BD00BF1D
:10586000FCE700005553424370B506460C46D6F897
:10587000BC52687A022808D18121304603F0E1FE4B
:105880000121304603F0DDFE0CE004F080008028AA
:1058900007D1687A012804D00121304600F092F83F
:1058A00000E070BD00BFFCE770B505460E46D5F8B8
:1058B000BC42207A022804D0032815D0042818D12D
:1058C00011E041F210002044417B41F21000221807
:1058D0000F32284601F048F9002803DA0121284652
:1058E00000F070F806E000BF0021284600F06AF8DA
:1058F00000E000BF00BF70BD70B505460E46D5F88C
:10590000BC42207A10B1012816D103E02846FFF7E7
:105910002FFF12E041F210002044417B41F21000C1
:1059200022180F32284601F01FF9002803DA01215E
:10593000284600F047F800E000BF00BF70BDD0F877
:10594000BC1200220A72704770B50546D5F8BC42F9
:10595000002020726072002141F261000155401E5A
:105960000155801C0155D5F8C00201680020884708
:105970000121284603F028FD8121284603F024FD5B
:105980001F2341F2100022180121284603F0A6FD32
:1059900070BD70B50546D5F8BC42002020720120CC
:1059A00060728121284603F01AFC0121284603F089
:1059B00016FC1F2341F2100022180121284603F093
:1059C0008DFD70BD70B505460E46D5F8BC420C493C
:1059D00041F23000015120440673002020720D2353
:1059E00041F2300022188121284603F056FE1F2381
:1059F00041F2100022180121284603F06FFD70BD0E
:105A0000555342532DE9F04106460F461546D6F848
:105A1000BC4241F2100020448068A84204D241F206
:105A200010002044806800E02846804641F23000A3
:105A300020448068401B41F23001214488600020EE
:105A400041F23001214408730420207243463A4653
:105A50008121304603F021FEBDE8F0811FB5002012
:105A600000900190029003901648174908604FF487
:105A70008030486000211448816001210161017675
:105A8000002180F82010C162104981620021C160AC
:105A90000121C161002180F8301001214161FBF733
:105AA00025FC08B1FBF70AFB1020009001200190B3
:105AB0000020029069460448FBF74EFB08B1FBF753
:105AC000FDFA1FBD00200140140100100100000F6D
:105AD00010B50446012221460148FBF779FC10BDB0
